{
  "transactions": [
    {
      "hash": null,
      "transactionType": "CALL",
      "contractName": null,
      "contractAddress": "0x8a1fd199516489b0fb7153eb5f075cdac83c693d",
      "function": "updateGroupAdmin(uint256,address)",
      "arguments": [
        "4",
        "0x3F70431e4ccc1DD4e6d0f8394a4ecc2e67767358"
      ],
      "transaction": {
        "from": "0x6e89b5168a0a3373d87559c5d1d279b3c89b6104",
        "to": "0x8a1fd199516489b0fb7153eb5f075cdac83c693d",
        "gas": "0xf784",
        "value": "0x0",
        "input": "0x568ee826000000000000000000000000000000000000000000000000000000000000000400000000000000000000000022a90d288390580865d65d8c288be8b838a5cf0e",
        "nonce": "0x5",
        "chainId": "0x66eee"
      },
      "additionalContracts": [],
      "isFixedGasLimit": false
    },
    {
      "hash": null,
      "transactionType": "CALL",
      "contractName": null,
      "contractAddress": "0x3F70431e4ccc1DD4e6d0f8394a4ecc2e67767358",
      "function": "acceptGroupAdmin(uint256)",
      "arguments": [
        "4"
      ],
      "transaction": {
        "from": "0x6e89b5168a0a3373d87559c5d1d279b3c89b6104",
        "to": "0x3F70431e4ccc1DD4e6d0f8394a4ecc2e67767358",
        "gas": "0xc44e",
        "value": "0x0",
        "input": "0xda3cda520000000000000000000000000000000000000000000000000000000000000004",
        "nonce": "0x6",
        "chainId": "0x66eee"
      },
      "additionalContracts": [],
      "isFixedGasLimit": false
    }
  ],
  "receipts": [],
  "libraries": [],
  "pending": [],
  "returns": {},
  "timestamp": 1762884139991,
  "chain": 421614,
  "commit": "d27cea1"
}